{
  "contractName": "PollPaymentSystem",
  "abi": [
    {
      "inputs": [
        {
          "internalType": "address",
          "name": "_initialOwner",
          "type": "address"
        }
      ],
      "stateMutability": "nonpayable",
      "type": "constructor"
    },
    {
      "anonymous": false,
      "inputs": [
        {
          "indexed": false,
          "internalType": "uint256",
          "name": "communityId",
          "type": "uint256"
        },
        {
          "indexed": false,
          "internalType": "string",
          "name": "name",
          "type": "string"
        }
      ],
      "name": "CommunityCreated",
      "type": "event"
    },
    {
      "anonymous": false,
      "inputs": [
        {
          "indexed": false,
          "internalType": "uint256",
          "name": "communityId",
          "type": "uint256"
        },
        {
          "indexed": false,
          "internalType": "address",
          "name": "user",
          "type": "address"
        }
      ],
      "name": "CommunityFollowed",
      "type": "event"
    },
    {
      "anonymous": false,
      "inputs": [
        {
          "indexed": false,
          "internalType": "uint256",
          "name": "communityId",
          "type": "uint256"
        },
        {
          "indexed": false,
          "internalType": "address",
          "name": "user",
          "type": "address"
        }
      ],
      "name": "CommunityUnfollowed",
      "type": "event"
    },
    {
      "anonymous": false,
      "inputs": [
        {
          "indexed": false,
          "internalType": "uint256",
          "name": "pollId",
          "type": "uint256"
        },
        {
          "indexed": false,
          "internalType": "address",
          "name": "creator",
          "type": "address"
        },
        {
          "indexed": false,
          "internalType": "string",
          "name": "question",
          "type": "string"
        },
        {
          "indexed": false,
          "internalType": "uint256",
          "name": "communityId",
          "type": "uint256"
        }
      ],
      "name": "PollCreated",
      "type": "event"
    },
    {
      "anonymous": false,
      "inputs": [
        {
          "indexed": false,
          "internalType": "uint256",
          "name": "postId",
          "type": "uint256"
        },
        {
          "indexed": false,
          "internalType": "string",
          "name": "content",
          "type": "string"
        }
      ],
      "name": "PostContent",
      "type": "event"
    },
    {
      "anonymous": false,
      "inputs": [
        {
          "indexed": false,
          "internalType": "uint256",
          "name": "postId",
          "type": "uint256"
        },
        {
          "indexed": false,
          "internalType": "address",
          "name": "creator",
          "type": "address"
        },
        {
          "indexed": false,
          "internalType": "uint256",
          "name": "communityId",
          "type": "uint256"
        }
      ],
      "name": "PostCreated",
      "type": "event"
    },
    {
      "anonymous": false,
      "inputs": [
        {
          "indexed": false,
          "internalType": "address",
          "name": "user",
          "type": "address"
        },
        {
          "indexed": false,
          "internalType": "uint256",
          "name": "amount",
          "type": "uint256"
        }
      ],
      "name": "RewardClaimed",
      "type": "event"
    },
    {
      "anonymous": false,
      "inputs": [
        {
          "indexed": false,
          "internalType": "address",
          "name": "user",
          "type": "address"
        }
      ],
      "name": "UserRegistered",
      "type": "event"
    },
    {
      "anonymous": false,
      "inputs": [
        {
          "indexed": false,
          "internalType": "uint256",
          "name": "pollId",
          "type": "uint256"
        },
        {
          "indexed": false,
          "internalType": "address",
          "name": "voter",
          "type": "address"
        },
        {
          "indexed": false,
          "internalType": "uint256",
          "name": "option",
          "type": "uint256"
        }
      ],
      "name": "VoteCasted",
      "type": "event"
    },
    {
      "inputs": [],
      "name": "POST_CREATION_FEE",
      "outputs": [
        {
          "internalType": "uint256",
          "name": "",
          "type": "uint256"
        }
      ],
      "stateMutability": "view",
      "type": "function",
      "constant": true
    },
    {
      "inputs": [
        {
          "internalType": "uint256",
          "name": "",
          "type": "uint256"
        }
      ],
      "name": "communities",
      "outputs": [
        {
          "internalType": "uint256",
          "name": "id",
          "type": "uint256"
        },
        {
          "internalType": "string",
          "name": "name",
          "type": "string"
        },
        {
          "internalType": "bool",
          "name": "isActive",
          "type": "bool"
        },
        {
          "internalType": "uint256",
          "name": "memberCount",
          "type": "uint256"
        }
      ],
      "stateMutability": "view",
      "type": "function",
      "constant": true
    },
    {
      "inputs": [],
      "name": "communityCount",
      "outputs": [
        {
          "internalType": "uint256",
          "name": "",
          "type": "uint256"
        }
      ],
      "stateMutability": "view",
      "type": "function",
      "constant": true
    },
    {
      "inputs": [],
      "name": "pollCount",
      "outputs": [
        {
          "internalType": "uint256",
          "name": "",
          "type": "uint256"
        }
      ],
      "stateMutability": "view",
      "type": "function",
      "constant": true
    },
    {
      "inputs": [
        {
          "internalType": "uint256",
          "name": "",
          "type": "uint256"
        }
      ],
      "name": "polls",
      "outputs": [
        {
          "internalType": "address",
          "name": "creator",
          "type": "address"
        },
        {
          "internalType": "string",
          "name": "question",
          "type": "string"
        },
        {
          "internalType": "uint256",
          "name": "totalVotes",
          "type": "uint256"
        },
        {
          "internalType": "bool",
          "name": "isActive",
          "type": "bool"
        },
        {
          "internalType": "uint256",
          "name": "reward",
          "type": "uint256"
        },
        {
          "internalType": "uint256",
          "name": "communityId",
          "type": "uint256"
        },
        {
          "internalType": "uint256",
          "name": "createdAt",
          "type": "uint256"
        }
      ],
      "stateMutability": "view",
      "type": "function",
      "constant": true
    },
    {
      "inputs": [],
      "name": "postCount",
      "outputs": [
        {
          "internalType": "uint256",
          "name": "",
          "type": "uint256"
        }
      ],
      "stateMutability": "view",
      "type": "function",
      "constant": true
    },
    {
      "inputs": [
        {
          "internalType": "uint256",
          "name": "",
          "type": "uint256"
        }
      ],
      "name": "posts",
      "outputs": [
        {
          "internalType": "uint256",
          "name": "id",
          "type": "uint256"
        },
        {
          "internalType": "address",
          "name": "creator",
          "type": "address"
        },
        {
          "internalType": "string",
          "name": "content",
          "type": "string"
        },
        {
          "internalType": "uint256",
          "name": "communityId",
          "type": "uint256"
        },
        {
          "internalType": "bool",
          "name": "isActive",
          "type": "bool"
        },
        {
          "internalType": "uint256",
          "name": "createdAt",
          "type": "uint256"
        }
      ],
      "stateMutability": "view",
      "type": "function",
      "constant": true
    },
    {
      "inputs": [
        {
          "internalType": "address",
          "name": "",
          "type": "address"
        }
      ],
      "name": "registeredUsers",
      "outputs": [
        {
          "internalType": "bool",
          "name": "",
          "type": "bool"
        }
      ],
      "stateMutability": "view",
      "type": "function",
      "constant": true
    },
    {
      "inputs": [
        {
          "internalType": "address",
          "name": "",
          "type": "address"
        },
        {
          "internalType": "uint256",
          "name": "",
          "type": "uint256"
        }
      ],
      "name": "userCommunities",
      "outputs": [
        {
          "internalType": "bool",
          "name": "isFollowing",
          "type": "bool"
        },
        {
          "internalType": "uint256",
          "name": "joinedAt",
          "type": "uint256"
        }
      ],
      "stateMutability": "view",
      "type": "function",
      "constant": true
    },
    {
      "inputs": [
        {
          "internalType": "address",
          "name": "",
          "type": "address"
        }
      ],
      "name": "userWallet",
      "outputs": [
        {
          "internalType": "uint256",
          "name": "",
          "type": "uint256"
        }
      ],
      "stateMutability": "view",
      "type": "function",
      "constant": true
    },
    {
      "inputs": [
        {
          "internalType": "string",
          "name": "_content",
          "type": "string"
        },
        {
          "internalType": "uint256",
          "name": "_communityId",
          "type": "uint256"
        }
      ],
      "name": "createPost",
      "outputs": [],
      "stateMutability": "nonpayable",
      "type": "function"
    },
    {
      "inputs": [
        {
          "internalType": "string",
          "name": "_name",
          "type": "string"
        }
      ],
      "name": "createCommunity",
      "outputs": [],
      "stateMutability": "nonpayable",
      "type": "function"
    },
    {
      "inputs": [
        {
          "internalType": "uint256",
          "name": "_communityId",
          "type": "uint256"
        }
      ],
      "name": "followCommunity",
      "outputs": [],
      "stateMutability": "nonpayable",
      "type": "function"
    },
    {
      "inputs": [
        {
          "internalType": "uint256",
          "name": "_communityId",
          "type": "uint256"
        }
      ],
      "name": "unfollowCommunity",
      "outputs": [],
      "stateMutability": "nonpayable",
      "type": "function"
    },
    {
      "inputs": [],
      "name": "getAllCommunities",
      "outputs": [
        {
          "internalType": "uint256[]",
          "name": "ids",
          "type": "uint256[]"
        },
        {
          "internalType": "string[]",
          "name": "names",
          "type": "string[]"
        },
        {
          "internalType": "bool[]",
          "name": "activeStates",
          "type": "bool[]"
        },
        {
          "internalType": "uint256[]",
          "name": "memberCounts",
          "type": "uint256[]"
        }
      ],
      "stateMutability": "view",
      "type": "function",
      "constant": true
    },
    {
      "inputs": [
        {
          "internalType": "address",
          "name": "_user",
          "type": "address"
        },
        {
          "internalType": "uint256",
          "name": "_communityId",
          "type": "uint256"
        }
      ],
      "name": "isFollowingCommunity",
      "outputs": [
        {
          "internalType": "bool",
          "name": "",
          "type": "bool"
        }
      ],
      "stateMutability": "view",
      "type": "function",
      "constant": true
    },
    {
      "inputs": [
        {
          "internalType": "address",
          "name": "_user",
          "type": "address"
        }
      ],
      "name": "getUserCommunities",
      "outputs": [
        {
          "internalType": "uint256[]",
          "name": "communityIds",
          "type": "uint256[]"
        },
        {
          "internalType": "uint256[]",
          "name": "joinDates",
          "type": "uint256[]"
        }
      ],
      "stateMutability": "view",
      "type": "function",
      "constant": true
    },
    {
      "inputs": [
        {
          "internalType": "address",
          "name": "_userAddress",
          "type": "address"
        }
      ],
      "name": "registerUser",
      "outputs": [],
      "stateMutability": "nonpayable",
      "type": "function"
    },
    {
      "inputs": [],
      "name": "connectWallet",
      "outputs": [],
      "stateMutability": "nonpayable",
      "type": "function"
    },
    {
      "inputs": [
        {
          "internalType": "string",
          "name": "_question",
          "type": "string"
        },
        {
          "internalType": "string[]",
          "name": "_options",
          "type": "string[]"
        },
        {
          "internalType": "uint256",
          "name": "_communityId",
          "type": "uint256"
        }
      ],
      "name": "createPoll",
      "outputs": [],
      "stateMutability": "payable",
      "type": "function",
      "payable": true
    },
    {
      "inputs": [
        {
          "internalType": "uint256",
          "name": "_postId",
          "type": "uint256"
        }
      ],
      "name": "getPost",
      "outputs": [
        {
          "internalType": "address",
          "name": "creator",
          "type": "address"
        },
        {
          "internalType": "string",
          "name": "content",
          "type": "string"
        },
        {
          "internalType": "uint256",
          "name": "communityId",
          "type": "uint256"
        },
        {
          "internalType": "bool",
          "name": "isActive",
          "type": "bool"
        },
        {
          "internalType": "uint256",
          "name": "createdAt",
          "type": "uint256"
        }
      ],
      "stateMutability": "view",
      "type": "function",
      "constant": true
    },
    {
      "inputs": [
        {
          "internalType": "uint256",
          "name": "_communityId",
          "type": "uint256"
        }
      ],
      "name": "getCommunityContent",
      "outputs": [
        {
          "components": [
            {
              "components": [
                {
                  "internalType": "address",
                  "name": "creator",
                  "type": "address"
                },
                {
                  "internalType": "string",
                  "name": "content",
                  "type": "string"
                },
                {
                  "internalType": "uint256",
                  "name": "communityId",
                  "type": "uint256"
                },
                {
                  "internalType": "uint256",
                  "name": "createdAt",
                  "type": "uint256"
                },
                {
                  "internalType": "bool",
                  "name": "isActive",
                  "type": "bool"
                }
              ],
              "internalType": "struct PollPaymentSystem.PostItem[]",
              "name": "posts",
              "type": "tuple[]"
            },
            {
              "components": [
                {
                  "internalType": "address",
                  "name": "creator",
                  "type": "address"
                },
                {
                  "internalType": "string",
                  "name": "question",
                  "type": "string"
                },
                {
                  "internalType": "string[]",
                  "name": "options",
                  "type": "string[]"
                },
                {
                  "internalType": "uint256[]",
                  "name": "voteCounts",
                  "type": "uint256[]"
                },
                {
                  "internalType": "uint256",
                  "name": "totalVotes",
                  "type": "uint256"
                },
                {
                  "internalType": "uint256",
                  "name": "communityId",
                  "type": "uint256"
                },
                {
                  "internalType": "uint256",
                  "name": "createdAt",
                  "type": "uint256"
                },
                {
                  "internalType": "bool",
                  "name": "isActive",
                  "type": "bool"
                }
              ],
              "internalType": "struct PollPaymentSystem.PollItem[]",
              "name": "polls",
              "type": "tuple[]"
            }
          ],
          "internalType": "struct PollPaymentSystem.CommunityContent",
          "name": "",
          "type": "tuple"
        }
      ],
      "stateMutability": "view",
      "type": "function",
      "constant": true
    },
    {
      "inputs": [
        {
          "internalType": "uint256",
          "name": "_pollId",
          "type": "uint256"
        },
        {
          "internalType": "uint256",
          "name": "_option",
          "type": "uint256"
        }
      ],
      "name": "castVote",
      "outputs": [],
      "stateMutability": "nonpayable",
      "type": "function"
    },
    {
      "inputs": [
        {
          "internalType": "uint256",
          "name": "_pollId",
          "type": "uint256"
        }
      ],
      "name": "getPollDetails",
      "outputs": [
        {
          "internalType": "address",
          "name": "creator",
          "type": "address"
        },
        {
          "internalType": "string",
          "name": "question",
          "type": "string"
        },
        {
          "internalType": "string[]",
          "name": "options",
          "type": "string[]"
        },
        {
          "internalType": "uint256",
          "name": "totalVotes",
          "type": "uint256"
        },
        {
          "internalType": "bool",
          "name": "isActive",
          "type": "bool"
        }
      ],
      "stateMutability": "view",
      "type": "function",
      "constant": true
    },
    {
      "inputs": [
        {
          "internalType": "uint256",
          "name": "_pollId",
          "type": "uint256"
        },
        {
          "internalType": "uint256",
          "name": "_option",
          "type": "uint256"
        }
      ],
      "name": "getVotesForOption",
      "outputs": [
        {
          "internalType": "uint256",
          "name": "",
          "type": "uint256"
        }
      ],
      "stateMutability": "view",
      "type": "function",
      "constant": true
    },
    {
      "inputs": [
        {
          "internalType": "uint256",
          "name": "_pollId",
          "type": "uint256"
        }
      ],
      "name": "closePoll",
      "outputs": [],
      "stateMutability": "nonpayable",
      "type": "function"
    },
    {
      "inputs": [],
      "name": "withdrawRewards",
      "outputs": [],
      "stateMutability": "nonpayable",
      "type": "function"
    },
    {
      "inputs": [],
      "name": "getContractBalance",
      "outputs": [
        {
          "internalType": "uint256",
          "name": "",
          "type": "uint256"
        }
      ],
      "stateMutability": "view",
      "type": "function",
      "constant": true
    },
    {
      "inputs": [
        {
          "internalType": "address",
          "name": "_user",
          "type": "address"
        }
      ],
      "name": "isRegistered",
      "outputs": [
        {
          "internalType": "bool",
          "name": "",
          "type": "bool"
        }
      ],
      "stateMutability": "view",
      "type": "function",
      "constant": true
    }
  ],
  "bytecode": "0x60806040523480156200001157600080fd5b5060405162005ccb38038062005ccb833981810160405281019062000037919062000512565b600073ffffffffffffffffffffffffffffffffffffffff168173ffffffffffffffffffffffffffffffffffffffff161415620000aa576040517f08c379a0000000000000000000000000000000000000000000000000000000008152600401620000a19062000600565b60405180910390fd5b806000806101000a81548173ffffffffffffffffffffffffffffffffffffffff021916908373ffffffffffffffffffffffffffffffffffffffff1602179055506001600360008373ffffffffffffffffffffffffffffffffffffffff1673ffffffffffffffffffffffffffffffffffffffff16815260200190815260200160002060006101000a81548160ff0219169083151502179055507f54db7a5cb4735e1aac1f53db512d3390390bb6637bd30ad4bf9fc98667d9b9b981604051620001739190620005e3565b60405180910390a16200018b6200019260201b60201c565b5062000850565b60006040518060a001604052806040518060400160405280600a81526020017f546563686e6f6c6f67790000000000000000000000000000000000000000000081525081526020016040518060400160405280600781526020017f536369656e63650000000000000000000000000000000000000000000000000081525081526020016040518060400160405280600481526020017f417274730000000000000000000000000000000000000000000000000000000081525081526020016040518060400160405280600681526020017f53706f727473000000000000000000000000000000000000000000000000000081525081526020016040518060400160405280600d81526020017f456e7465727461696e6d656e7400000000000000000000000000000000000000815250815250905060005b60058110156200044757600060046000600184620002e8919062000672565b8152602001908152602001600020905060018262000307919062000672565b816000018190555082826005811062000349577f4e487b7100000000000000000000000000000000000000000000000000000000600052603260045260246000fd5b6020020151816001019080519060200190620003679291906200044b565b5060018160020160006101000a81548160ff0219169083151502179055506000816003018190555060086000815480929190620003a49062000779565b91905055507fb49ca6001fc818c8bb7f81386dfd2a5fe28b2ee4ff17d6294176339a6c3ecc24600183620003d9919062000672565b84846005811062000413577f4e487b7100000000000000000000000000000000000000000000000000000000600052603260045260246000fd5b60200201516040516200042892919062000622565b60405180910390a15080806200043e9062000779565b915050620002c9565b5050565b828054620004599062000743565b90600052602060002090601f0160209004810192826200047d5760008555620004c9565b82601f106200049857805160ff1916838001178555620004c9565b82800160010185558215620004c9579182015b82811115620004c8578251825591602001919060010190620004ab565b5b509050620004d89190620004dc565b5090565b5b80821115620004f7576000816000905550600101620004dd565b5090565b6000815190506200050c8162000836565b92915050565b6000602082840312156200052557600080fd5b60006200053584828501620004fb565b91505092915050565b6200054981620006cf565b82525050565b60006200055c8262000656565b62000568818562000661565b93506200057a8185602086016200070d565b620005858162000825565b840191505092915050565b60006200059f60158362000661565b91507f496e76616c6964206f776e6572206164647265737300000000000000000000006000830152602082019050919050565b620005dd8162000703565b82525050565b6000602082019050620005fa60008301846200053e565b92915050565b600060208201905081810360008301526200061b8162000590565b9050919050565b6000604082019050620006396000830185620005d2565b81810360208301526200064d81846200054f565b90509392505050565b600081519050919050565b600082825260208201905092915050565b60006200067f8262000703565b91506200068c8362000703565b9250827fffffffffffffffffffffffffffffffffffffffffffffffffffffffffffffffff03821115620006c457620006c3620007c7565b5b828201905092915050565b6000620006dc82620006e3565b9050919050565b600073ffffffffffffffffffffffffffffffffffffffff82169050919050565b6000819050919050565b60005b838110156200072d57808201518184015260208101905062000710565b838111156200073d576000848401525b50505050565b600060028204905060018216806200075c57607f821691505b60208210811415620007735762000772620007f6565b5b50919050565b6000620007868262000703565b91507fffffffffffffffffffffffffffffffffffffffffffffffffffffffffffffffff821415620007bc57620007bb620007c7565b5b600182019050919050565b7f4e487b7100000000000000000000000000000000000000000000000000000000600052601160045260246000fd5b7f4e487b7100000000000000000000000000000000000000000000000000000000600052602260045260246000fd5b6000601f19601f8301169050919050565b6200084181620006cf565b81146200084d57600080fd5b50565b61546b80620008606000396000f3fe6080604052600436106101c25760003560e01c806395dd0ed0116100f7578063d37ebc2911610095578063e679292211610064578063e6792922146106a7578063ef39ae06146106d0578063f8c860f41461070d578063fc9dbc6914610729576101c2565b8063d37ebc29146105af578063dd446001146105ec578063ddbfb5881461062a578063e590b56a14610667576101c2565b8063aee84613116100d1578063aee8461314610505578063c3c5a54714610530578063c7b8981c1461056d578063cf42d15114610584576101c2565b806395dd0ed0146104535780639a0040e414610481578063ac2f0074146104c2576101c2565b80632d66f063116101645780636ea0882c1161013e5780636ea0882c146103ab5780636f9fb98a146103d45780639207891d146103ff5780639534e6371461042a576101c2565b80632d66f0631461031557806340731c241461032c5780636543286f1461036d576101c2565b80631252cb48116101a05780631252cb481461026f57806317906c2e146102985780632199d5cd146102c35780632c0a3f89146102ec576101c2565b806307a24a6a146101c75780630b1e7f83146101f05780630e50cee514610232575b600080fd5b3480156101d357600080fd5b506101ee60048036038101906101e99190613c10565b610766565b005b3480156101fc57600080fd5b5061021760048036038101906102129190613c10565b610a2a565b60405161022996959493929190614e91565b60405180910390f35b34801561023e57600080fd5b5061025960048036038101906102549190613a97565b610b1b565b6040516102669190614a9b565b60405180910390f35b34801561027b57600080fd5b5061029660048036038101906102919190613bbc565b610b3b565b005b3480156102a457600080fd5b506102ad610e4c565b6040516102ba9190614e01565b60405180910390f35b3480156102cf57600080fd5b506102ea60048036038101906102e59190613a97565b610e52565b005b3480156102f857600080fd5b50610313600480360381019061030e9190613c39565b61106f565b005b34801561032157600080fd5b5061032a61149b565b005b34801561033857600080fd5b50610353600480360381019061034e9190613c10565b6115b9565b60405161036495949392919061490a565b60405180910390f35b34801561037957600080fd5b50610394600480360381019061038f9190613a97565b61170e565b6040516103a2929190614a64565b60405180910390f35b3480156103b757600080fd5b506103d260048036038101906103cd9190613c10565b611a0d565b005b3480156103e057600080fd5b506103e9611c64565b6040516103f69190614e01565b60405180910390f35b34801561040b57600080fd5b50610414611cf8565b6040516104219190614e01565b60405180910390f35b34801561043657600080fd5b50610451600480360381019061044c9190613c10565b611cfe565b005b34801561045f57600080fd5b50610468611ea8565b6040516104789493929190614a03565b60405180910390f35b34801561048d57600080fd5b506104a860048036038101906104a39190613c10565b6122b3565b6040516104b99594939291906148a9565b60405180910390f35b3480156104ce57600080fd5b506104e960048036038101906104e49190613c10565b6124cf565b6040516104fc9796959493929190614964565b60405180910390f35b34801561051157600080fd5b5061051a6125c6565b6040516105279190614e01565b60405180910390f35b34801561053c57600080fd5b5061055760048036038101906105529190613a97565b6125cc565b6040516105649190614a9b565b60405180910390f35b34801561057957600080fd5b50610582612622565b005b34801561059057600080fd5b50610599612863565b6040516105a69190614e01565b60405180910390f35b3480156105bb57600080fd5b506105d660048036038101906105d19190613c10565b612870565b6040516105e39190614ddf565b60405180910390f35b3480156105f857600080fd5b50610613600480360381019061060e9190613ac0565b612fd9565b604051610621929190614ab6565b60405180910390f35b34801561063657600080fd5b50610651600480360381019061064c9190613c39565b613017565b60405161065e9190614e01565b60405180910390f35b34801561067357600080fd5b5061068e60048036038101906106899190613c10565b6130ea565b60405161069e9493929190614f60565b60405180910390f35b3480156106b357600080fd5b506106ce60048036038101906106c99190613afc565b6131af565b005b3480156106dc57600080fd5b506106f760048036038101906106f29190613ac0565b61334a565b6040516107049190614a9b565b60405180910390f35b61072760048036038101906107229190613b3d565b613405565b005b34801561073557600080fd5b50610750600480360381019061074b9190613a97565b613741565b60405161075d9190614e01565b60405180910390f35b600360003373ffffffffffffffffffffffffffffffffffffffff1673ffffffffffffffffffffffffffffffffffffffff16815260200190815260200160002060009054906101000a900460ff166107f2576040517f08c379a00000000000000000000000000000000000000000000000000000000081526004016107e990614bff565b60405180910390fd5b60008111801561080457506008548111155b610843576040517f08c379a000000000000000000000000000000000000000000000000000000000815260040161083a90614d7f565b60405180910390fd5b6004600082815260200190815260200160002060020160009054906101000a900460ff166108a6576040517f08c379a000000000000000000000000000000000000000000000000000000000815260040161089d90614d5f565b60405180910390fd5b600560003373ffffffffffffffffffffffffffffffffffffffff1673ffffffffffffffffffffffffffffffffffffffff168152602001908152602001600020600082815260200190815260200160002060000160009054906101000a900460ff1615610947576040517f08c379a000000000000000000000000000000000000000000000000000000000815260040161093e90614d9f565b60405180910390fd5b6000600560003373ffffffffffffffffffffffffffffffffffffffff1673ffffffffffffffffffffffffffffffffffffffff1681526020019081526020016000206000838152602001908152602001600020905060018160000160006101000a81548160ff0219169083151502179055504281600101819055506004600083815260200190815260200160002060030160008154809291906109e890615320565b91905055507f39be7f9a5f1562cb61562aba9512f2a8b67769681a9a3a660ca8f6fedd95d35a8233604051610a1e929190614e1c565b60405180910390a15050565b60066020528060005260406000206000915090508060000154908060010160009054906101000a900473ffffffffffffffffffffffffffffffffffffffff1690806002018054610a79906152ee565b80601f0160208091040260200160405190810160405280929190818152602001828054610aa5906152ee565b8015610af25780601f10610ac757610100808354040283529160200191610af2565b820191906000526020600020905b815481529060010190602001808311610ad557829003601f168201915b5050505050908060030154908060040160009054906101000a900460ff16908060050154905086565b60036020528060005260406000206000915054906101000a900460ff1681565b600360003373ffffffffffffffffffffffffffffffffffffffff1673ffffffffffffffffffffffffffffffffffffffff16815260200190815260200160002060009054906101000a900460ff16610bc7576040517f08c379a0000000000000000000000000000000000000000000000000000000008152600401610bbe90614bff565b60405180910390fd5b6000825111610c0b576040517f08c379a0000000000000000000000000000000000000000000000000000000008152600401610c0290614cff565b60405180910390fd5b600081118015610c1d57506008548111155b610c5c576040517f08c379a0000000000000000000000000000000000000000000000000000000008152600401610c5390614d7f565b60405180910390fd5b600560003373ffffffffffffffffffffffffffffffffffffffff1673ffffffffffffffffffffffffffffffffffffffff168152602001908152602001600020600082815260200190815260200160002060000160009054906101000a900460ff16610cfc576040517f08c379a0000000000000000000000000000000000000000000000000000000008152600401610cf390614bbf565b60405180910390fd5b60006001600754610d0d91906151b0565b90506000600660008381526020019081526020016000209050818160000181905550338160010160006101000a81548173ffffffffffffffffffffffffffffffffffffffff021916908373ffffffffffffffffffffffffffffffffffffffff16021790555083816002019080519060200190610d8a929190613759565b5082816003018190555060018160040160006101000a81548160ff02191690831515021790555042816005018190555060076000815480929190610dcd90615320565b91905055507f35e9d1576a3cf0faf0d7e6d6fd53fcfebe5a51f7043238e20ff4125e5df65773823385604051610e0593929190614ef9565b60405180910390a17ff56b5dfdd5de04363333a774a8cd3f117992425a661f709dfb86d31ea23def928285604051610e3e929190614f30565b60405180910390a150505050565b60075481565b60008054906101000a900473ffffffffffffffffffffffffffffffffffffffff1673ffffffffffffffffffffffffffffffffffffffff163373ffffffffffffffffffffffffffffffffffffffff1614610ee0576040517f08c379a0000000000000000000000000000000000000000000000000000000008152600401610ed790614b7f565b60405180910390fd5b600073ffffffffffffffffffffffffffffffffffffffff168173ffffffffffffffffffffffffffffffffffffffff161415610f50576040517f08c379a0000000000000000000000000000000000000000000000000000000008152600401610f4790614b1f565b60405180910390fd5b600360008273ffffffffffffffffffffffffffffffffffffffff1673ffffffffffffffffffffffffffffffffffffffff16815260200190815260200160002060009054906101000a900460ff1615610fdd576040517f08c379a0000000000000000000000000000000000000000000000000000000008152600401610fd490614d1f565b60405180910390fd5b6001600360008373ffffffffffffffffffffffffffffffffffffffff1673ffffffffffffffffffffffffffffffffffffffff16815260200190815260200160002060006101000a81548160ff0219169083151502179055507f54db7a5cb4735e1aac1f53db512d3390390bb6637bd30ad4bf9fc98667d9b9b981604051611064919061488e565b60405180910390a150565b600360003373ffffffffffffffffffffffffffffffffffffffff1673ffffffffffffffffffffffffffffffffffffffff16815260200190815260200160002060009054906101000a900460ff166110fb576040517f08c379a00000000000000000000000000000000000000000000000000000000081526004016110f290614bff565b60405180910390fd5b816009548110611140576040517f08c379a000000000000000000000000000000000000000000000000000000000815260040161113790614d3f565b60405180910390fd5b826001600082815260200190815260200160002060060160009054906101000a900460ff166111a4576040517f08c379a000000000000000000000000000000000000000000000000000000000815260040161119b90614cbf565b60405180910390fd5b836001600082815260200190815260200160002060040160003373ffffffffffffffffffffffffffffffffffffffff1673ffffffffffffffffffffffffffffffffffffffff16815260200190815260200160002060009054906101000a900460ff1615611246576040517f08c379a000000000000000000000000000000000000000000000000000000000815260040161123d90614c7f565b60405180910390fd5b843373ffffffffffffffffffffffffffffffffffffffff166001600083815260200190815260200160002060000160009054906101000a900473ffffffffffffffffffffffffffffffffffffffff1673ffffffffffffffffffffffffffffffffffffffff1614156112ec576040517f08c379a00000000000000000000000000000000000000000000000000000000081526004016112e390614b9f565b60405180910390fd5b60016000878152602001908152602001600020600201805490508510611347576040517f08c379a000000000000000000000000000000000000000000000000000000000815260040161133e90614c1f565b60405180910390fd5b6000600160008881526020019081526020016000209050806003016000878152602001908152602001600020600081548092919061138490615320565b919050555060018160040160003373ffffffffffffffffffffffffffffffffffffffff1673ffffffffffffffffffffffffffffffffffffffff16815260200190815260200160002060006101000a81548160ff0219169083151502179055508060050160008154809291906113f890615320565b91905055508060070154600260003373ffffffffffffffffffffffffffffffffffffffff1673ffffffffffffffffffffffffffffffffffffffff168152602001908152602001600020600082825461145091906151b0565b925050819055507fe7ee74ca1f4bb1b82b14f87794c45b3e59c39e372b862fb97a6316b43355b69e87338860405161148a93929190614ef9565b60405180910390a150505050505050565b600360003373ffffffffffffffffffffffffffffffffffffffff1673ffffffffffffffffffffffffffffffffffffffff16815260200190815260200160002060009054906101000a900460ff1615611528576040517f08c379a000000000000000000000000000000000000000000000000000000000815260040161151f90614aff565b60405180910390fd5b6001600360003373ffffffffffffffffffffffffffffffffffffffff1673ffffffffffffffffffffffffffffffffffffffff16815260200190815260200160002060006101000a81548160ff0219169083151502179055507f54db7a5cb4735e1aac1f53db512d3390390bb6637bd30ad4bf9fc98667d9b9b9336040516115af919061488e565b60405180910390a1565b60006060600080600080861180156115d357506007548611155b611612576040517f08c379a000000000000000000000000000000000000000000000000000000000815260040161160990614adf565b60405180910390fd5b60006006600088815260200190815260200160002090508060010160009054906101000a900473ffffffffffffffffffffffffffffffffffffffff168160020182600301548360040160009054906101000a900460ff16846005015483805461167a906152ee565b80601f01602080910402602001604051908101604052809291908181526020018280546116a6906152ee565b80156116f35780601f106116c8576101008083540402835291602001916116f3565b820191906000526020600020905b8154815290600101906020018083116116d657829003601f168201915b50505050509350955095509550955095505091939590929450565b606080600080600190505b60085481116117aa57600560008673ffffffffffffffffffffffffffffffffffffffff1673ffffffffffffffffffffffffffffffffffffffff168152602001908152602001600020600082815260200190815260200160002060000160009054906101000a900460ff161561179757818061179390615320565b9250505b80806117a290615320565b915050611719565b508067ffffffffffffffff8111156117eb577f4e487b7100000000000000000000000000000000000000000000000000000000600052604160045260246000fd5b6040519080825280602002602001820160405280156118195781602001602082028036833780820191505090505b5092508067ffffffffffffffff81111561185c577f4e487b7100000000000000000000000000000000000000000000000000000000600052604160045260246000fd5b60405190808252806020026020018201604052801561188a5781602001602082028036833780820191505090505b509150600080600190505b6008548111611a0557600560008773ffffffffffffffffffffffffffffffffffffffff1673ffffffffffffffffffffffffffffffffffffffff168152602001908152602001600020600082815260200190815260200160002060000160009054906101000a900460ff16156119f2578085838151811061193e577f4e487b7100000000000000000000000000000000000000000000000000000000600052603260045260246000fd5b602002602001018181525050600560008773ffffffffffffffffffffffffffffffffffffffff1673ffffffffffffffffffffffffffffffffffffffff1681526020019081526020016000206000828152602001908152602001600020600101548483815181106119d7577f4e487b7100000000000000000000000000000000000000000000000000000000600052603260045260246000fd5b60200260200101818152505081806119ee90615320565b9250505b80806119fd90615320565b915050611895565b505050915091565b600360003373ffffffffffffffffffffffffffffffffffffffff1673ffffffffffffffffffffffffffffffffffffffff16815260200190815260200160002060009054906101000a900460ff16611a99576040517f08c379a0000000000000000000000000000000000000000000000000000000008152600401611a9090614bff565b60405180910390fd5b600081118015611aab57506008548111155b611aea576040517f08c379a0000000000000000000000000000000000000000000000000000000008152600401611ae190614d7f565b60405180910390fd5b600560003373ffffffffffffffffffffffffffffffffffffffff1673ffffffffffffffffffffffffffffffffffffffff168152602001908152602001600020600082815260200190815260200160002060000160009054906101000a900460ff16611b8a576040517f08c379a0000000000000000000000000000000000000000000000000000000008152600401611b8190614b5f565b60405180910390fd5b6000600560003373ffffffffffffffffffffffffffffffffffffffff1673ffffffffffffffffffffffffffffffffffffffff1681526020019081526020016000206000838152602001908152602001600020905060008160000160006101000a81548160ff021916908315150217905550600460008381526020019081526020016000206003016000815480929190611c22906152c4565b91905055507fecdc6d4fafe2a2b45bd6536f2c7aeffc7222232a4b09362660f6dbc7809522668233604051611c58929190614e1c565b60405180910390a15050565b6000600360003373ffffffffffffffffffffffffffffffffffffffff1673ffffffffffffffffffffffffffffffffffffffff16815260200190815260200160002060009054906101000a900460ff16611cf2576040517f08c379a0000000000000000000000000000000000000000000000000000000008152600401611ce990614bff565b60405180910390fd5b47905090565b60095481565b600360003373ffffffffffffffffffffffffffffffffffffffff1673ffffffffffffffffffffffffffffffffffffffff16815260200190815260200160002060009054906101000a900460ff16611d8a576040517f08c379a0000000000000000000000000000000000000000000000000000000008152600401611d8190614bff565b60405180910390fd5b806009548110611dcf576040517f08c379a0000000000000000000000000000000000000000000000000000000008152600401611dc690614d3f565b60405180910390fd5b813373ffffffffffffffffffffffffffffffffffffffff166001600083815260200190815260200160002060000160009054906101000a900473ffffffffffffffffffffffffffffffffffffffff1673ffffffffffffffffffffffffffffffffffffffff1614611e74576040517f08c379a0000000000000000000000000000000000000000000000000000000008152600401611e6b90614dbf565b60405180910390fd5b60006001600085815260200190815260200160002060060160006101000a81548160ff021916908315150217905550505050565b60608060608060085467ffffffffffffffff811115611ef0577f4e487b7100000000000000000000000000000000000000000000000000000000600052604160045260246000fd5b604051908082528060200260200182016040528015611f1e5781602001602082028036833780820191505090505b50935060085467ffffffffffffffff811115611f63577f4e487b7100000000000000000000000000000000000000000000000000000000600052604160045260246000fd5b604051908082528060200260200182016040528015611f9657816020015b6060815260200190600190039081611f815790505b50925060085467ffffffffffffffff811115611fdb577f4e487b7100000000000000000000000000000000000000000000000000000000600052604160045260246000fd5b6040519080825280602002602001820160405280156120095781602001602082028036833780820191505090505b50915060085467ffffffffffffffff81111561204e577f4e487b7100000000000000000000000000000000000000000000000000000000600052604160045260246000fd5b60405190808252806020026020018201604052801561207c5781602001602082028036833780820191505090505b5090506000600190505b60085481116122ac5760006004600083815260200190815260200160002090508060000154866001846120b99190615206565b815181106120f0577f4e487b7100000000000000000000000000000000000000000000000000000000600052603260045260246000fd5b60200260200101818152505080600101805461210b906152ee565b80601f0160208091040260200160405190810160405280929190818152602001828054612137906152ee565b80156121845780601f1061215957610100808354040283529160200191612184565b820191906000526020600020905b81548152906001019060200180831161216757829003601f168201915b5050505050856001846121979190615206565b815181106121ce577f4e487b7100000000000000000000000000000000000000000000000000000000600052603260045260246000fd5b60200260200101819052508060020160009054906101000a900460ff16846001846121f99190615206565b81518110612230577f4e487b7100000000000000000000000000000000000000000000000000000000600052603260045260246000fd5b6020026020010190151590811515815250508060030154836001846122559190615206565b8151811061228c577f4e487b7100000000000000000000000000000000000000000000000000000000600052603260045260246000fd5b6020026020010181815250505080806122a490615320565b915050612086565b5090919293565b6000606080600080856009548110612300576040517f08c379a00000000000000000000000000000000000000000000000000000000081526004016122f790614d3f565b60405180910390fd5b60006001600089815260200190815260200160002090508060000160009054906101000a900473ffffffffffffffffffffffffffffffffffffffff16816001018260020183600501548460060160009054906101000a900460ff16838054612367906152ee565b80601f0160208091040260200160405190810160405280929190818152602001828054612393906152ee565b80156123e05780601f106123b5576101008083540402835291602001916123e0565b820191906000526020600020905b8154815290600101906020018083116123c357829003601f168201915b5050505050935082805480602002602001604051908101604052809291908181526020016000905b828210156124b4578382906000526020600020018054612427906152ee565b80601f0160208091040260200160405190810160405280929190818152602001828054612453906152ee565b80156124a05780601f10612475576101008083540402835291602001916124a0565b820191906000526020600020905b81548152906001019060200180831161248357829003601f168201915b505050505081526020019060010190612408565b50505050925096509650965096509650505091939590929450565b60016020528060005260406000206000915090508060000160009054906101000a900473ffffffffffffffffffffffffffffffffffffffff1690806001018054612518906152ee565b80601f0160208091040260200160405190810160405280929190818152602001828054612544906152ee565b80156125915780601f1061256657610100808354040283529160200191612591565b820191906000526020600020905b81548152906001019060200180831161257457829003601f168201915b5050505050908060050154908060060160009054906101000a900460ff16908060070154908060080154908060090154905087565b60085481565b6000600360008373ffffffffffffffffffffffffffffffffffffffff1673ffffffffffffffffffffffffffffffffffffffff16815260200190815260200160002060009054906101000a900460ff169050919050565b600360003373ffffffffffffffffffffffffffffffffffffffff1673ffffffffffffffffffffffffffffffffffffffff16815260200190815260200160002060009054906101000a900460ff166126ae576040517f08c379a00000000000000000000000000000000000000000000000000000000081526004016126a590614bff565b60405180910390fd5b6000600260003373ffffffffffffffffffffffffffffffffffffffff1673ffffffffffffffffffffffffffffffffffffffff16815260200190815260200160002054905060008111612735576040517f08c379a000000000000000000000000000000000000000000000000000000000815260040161272c90614c9f565b60405180910390fd5b6000600260003373ffffffffffffffffffffffffffffffffffffffff1673ffffffffffffffffffffffffffffffffffffffff1681526020019081526020016000208190555060003373ffffffffffffffffffffffffffffffffffffffff16826040516127a090614879565b60006040518083038185875af1925050503d80600081146127dd576040519150601f19603f3d011682016040523d82523d6000602084013e6127e2565b606091505b5050905080612826576040517f08c379a000000000000000000000000000000000000000000000000000000000815260040161281d90614bdf565b60405180910390fd5b7f106f923f993c2149d49b4255ff723acafa1f2d94393f561d3eda32ae348f724133836040516128579291906149da565b60405180910390a15050565b6802b5e3af16b188000081565b6128786137df565b60008211801561288a57506008548211155b6128c9576040517f08c379a00000000000000000000000000000000000000000000000000000000081526004016128c090614d7f565b60405180910390fd5b6000806000600190505b600754811161291c57846006600083815260200190815260200160002060030154141561290957828061290590615320565b9350505b808061291490615320565b9150506128d3565b5060005b60095481101561296a57846001600083815260200190815260200160002060080154141561295757818061295390615320565b9250505b808061296290615320565b915050612920565b5060008267ffffffffffffffff8111156129ad577f4e487b7100000000000000000000000000000000000000000000000000000000600052604160045260246000fd5b6040519080825280602002602001820160405280156129e657816020015b6129d36137f9565b8152602001906001900390816129cb5790505b50905060008267ffffffffffffffff811115612a2b577f4e487b7100000000000000000000000000000000000000000000000000000000600052604160045260246000fd5b604051908082528060200260200182016040528015612a6457816020015b612a51613840565b815260200190600190039081612a495790505b5090506000806000600190505b6007548111612c1e578860066000838152602001908152602001600020600301541415612c0b5760006006600083815260200190815260200160002090506040518060a001604052808260010160009054906101000a900473ffffffffffffffffffffffffffffffffffffffff1673ffffffffffffffffffffffffffffffffffffffff168152602001826002018054612b09906152ee565b80601f0160208091040260200160405190810160405280929190818152602001828054612b35906152ee565b8015612b825780601f10612b5757610100808354040283529160200191612b82565b820191906000526020600020905b815481529060010190602001808311612b6557829003601f168201915b5050505050815260200182600301548152602001826005015481526020018260040160009054906101000a900460ff161515815250868581518110612bf0577f4e487b7100000000000000000000000000000000000000000000000000000000600052603260045260246000fd5b60200260200101819052508380612c0690615320565b945050505b8080612c1690615320565b915050612a71565b5060005b600954811015612fb6578860016000838152602001908152602001600020600801541415612fa35760006001600083815260200190815260200160002090506000816002018054905067ffffffffffffffff811115612caa577f4e487b7100000000000000000000000000000000000000000000000000000000600052604160045260246000fd5b604051908082528060200260200182016040528015612cd85781602001602082028036833780820191505090505b50905060005b8260020180549050811015612d5b5782600301600082815260200190815260200160002054828281518110612d3c577f4e487b7100000000000000000000000000000000000000000000000000000000600052603260045260246000fd5b6020026020010181815250508080612d5390615320565b915050612cde565b506040518061010001604052808360000160009054906101000a900473ffffffffffffffffffffffffffffffffffffffff1673ffffffffffffffffffffffffffffffffffffffff168152602001836001018054612db7906152ee565b80601f0160208091040260200160405190810160405280929190818152602001828054612de3906152ee565b8015612e305780601f10612e0557610100808354040283529160200191612e30565b820191906000526020600020905b815481529060010190602001808311612e1357829003601f168201915b5050505050815260200183600201805480602002602001604051908101604052809291908181526020016000905b82821015612f0a578382906000526020600020018054612e7d906152ee565b80601f0160208091040260200160405190810160405280929190818152602001828054612ea9906152ee565b8015612ef65780601f10612ecb57610100808354040283529160200191612ef6565b820191906000526020600020905b815481529060010190602001808311612ed957829003601f168201915b505050505081526020019060010190612e5e565b5050505081526020018281526020018360050154815260200183600801548152602001836009015481526020018360060160009054906101000a900460ff161515815250868581518110612f87577f4e487b7100000000000000000000000000000000000000000000000000000000600052603260045260246000fd5b60200260200101819052508380612f9d90615320565b94505050505b8080612fae90615320565b915050612c22565b506040518060400160405280858152602001848152509650505050505050919050565b6005602052816000526040600020602052806000526040600020600091509150508060000160009054906101000a900460ff16908060010154905082565b600082600954811061305e576040517f08c379a000000000000000000000000000000000000000000000000000000000815260040161305590614d3f565b60405180910390fd5b600160008581526020019081526020016000206002018054905083106130b9576040517f08c379a00000000000000000000000000000000000000000000000000000000081526004016130b090614c1f565b60405180910390fd5b6001600085815260200190815260200160002060030160008481526020019081526020016000205491505092915050565b6004602052806000526040600020600091509050806000015490806001018054613113906152ee565b80601f016020809104026020016040519081016040528092919081815260200182805461313f906152ee565b801561318c5780601f106131615761010080835404028352916020019161318c565b820191906000526020600020905b81548152906001019060200180831161316f57829003601f168201915b5050505050908060020160009054906101000a900460ff16908060030154905084565b60008054906101000a900473ffffffffffffffffffffffffffffffffffffffff1673ffffffffffffffffffffffffffffffffffffffff163373ffffffffffffffffffffffffffffffffffffffff161461323d576040517f08c379a000000000000000000000000000000000000000000000000000000000815260040161323490614b7f565b60405180910390fd5b6000815111613281576040517f08c379a000000000000000000000000000000000000000000000000000000000815260040161327890614c3f565b60405180910390fd5b6000600160085461329291906151b0565b90506000600460008381526020019081526020016000209050818160000181905550828160010190805190602001906132cc929190613759565b5060018160020160006101000a81548160ff021916908315150217905550600081600301819055506008600081548092919061330790615320565b91905055507fb49ca6001fc818c8bb7f81386dfd2a5fe28b2ee4ff17d6294176339a6c3ecc24828460405161333d929190614f30565b60405180910390a1505050565b6000808211801561335d57506008548211155b61339c576040517f08c379a000000000000000000000000000000000000000000000000000000000815260040161339390614d7f565b60405180910390fd5b600560008473ffffffffffffffffffffffffffffffffffffffff1673ffffffffffffffffffffffffffffffffffffffff168152602001908152602001600020600083815260200190815260200160002060000160009054906101000a900460ff16905092915050565b600360003373ffffffffffffffffffffffffffffffffffffffff1673ffffffffffffffffffffffffffffffffffffffff16815260200190815260200160002060009054906101000a900460ff16613491576040517f08c379a000000000000000000000000000000000000000000000000000000000815260040161348890614bff565b60405180910390fd5b6802b5e3af16b188000034146134dc576040517f08c379a00000000000000000000000000000000000000000000000000000000081526004016134d390614c5f565b60405180910390fd5b600282511015613521576040517f08c379a000000000000000000000000000000000000000000000000000000000815260040161351890614b3f565b60405180910390fd5b60008111801561353357506008548111155b613572576040517f08c379a000000000000000000000000000000000000000000000000000000000815260040161356990614d7f565b60405180910390fd5b600560003373ffffffffffffffffffffffffffffffffffffffff1673ffffffffffffffffffffffffffffffffffffffff168152602001908152602001600020600082815260200190815260200160002060000160009054906101000a900460ff16613612576040517f08c379a000000000000000000000000000000000000000000000000000000000815260040161360990614cdf565b60405180910390fd5b600060095490506000600160008381526020019081526020016000209050338160000160006101000a81548173ffffffffffffffffffffffffffffffffffffffff021916908373ffffffffffffffffffffffffffffffffffffffff1602179055508481600101908051906020019061368b929190613759565b50838160020190805190602001906136a492919061389d565b5060018160060160006101000a81548160ff02191690831515021790555067016345785d8a00008160070181905550828160080181905550428160090181905550600960008154809291906136f890615320565b91905055507f9dbafd4116dcead87280b4bad16e92c851a647fbf87a77e05cf6b29c8fcdc33c823387866040516137329493929190614e45565b60405180910390a15050505050565b60026020528060005260406000206000915090505481565b828054613765906152ee565b90600052602060002090601f01602090048101928261378757600085556137ce565b82601f106137a057805160ff19168380011785556137ce565b828001600101855582156137ce579182015b828111156137cd5782518255916020019190600101906137b2565b5b5090506137db91906138fd565b5090565b604051806040016040528060608152602001606081525090565b6040518060a00160405280600073ffffffffffffffffffffffffffffffffffffffff1681526020016060815260200160008152602001600081526020016000151581525090565b604051806101000160405280600073ffffffffffffffffffffffffffffffffffffffff1681526020016060815260200160608152602001606081526020016000815260200160008152602001600081526020016000151581525090565b8280548282559060005260206000209081019282156138ec579160200282015b828111156138eb5782518290805190602001906138db929190613759565b50916020019190600101906138bd565b5b5090506138f9919061391a565b5090565b5b808211156139165760008160009055506001016138fe565b5090565b5b8082111561393a5760008181613931919061393e565b5060010161391b565b5090565b50805461394a906152ee565b6000825580601f1061395c575061397b565b601f01602090049060005260206000209081019061397a91906138fd565b5b50565b600061399161398c84614fdd565b614fac565b9050808382526020820190508260005b858110156139d157813585016139b78882613a58565b8452602084019350602083019250506001810190506139a1565b5050509392505050565b60006139ee6139e984615009565b614fac565b905082815260208101848484011115613a0657600080fd5b613a11848285615282565b509392505050565b600081359050613a2881615407565b92915050565b600082601f830112613a3f57600080fd5b8135613a4f84826020860161397e565b91505092915050565b600082601f830112613a6957600080fd5b8135613a798482602086016139db565b91505092915050565b600081359050613a918161541e565b92915050565b600060208284031215613aa957600080fd5b6000613ab784828501613a19565b91505092915050565b60008060408385031215613ad357600080fd5b6000613ae185828601613a19565b9250506020613af285828601613a82565b9150509250929050565b600060208284031215613b0e57600080fd5b600082013567ffffffffffffffff811115613b2857600080fd5b613b3484828501613a58565b91505092915050565b600080600060608486031215613b5257600080fd5b600084013567ffffffffffffffff811115613b6c57600080fd5b613b7886828701613a58565b935050602084013567ffffffffffffffff811115613b9557600080fd5b613ba186828701613a2e565b9250506040613bb286828701613a82565b9150509250925092565b60008060408385031215613bcf57600080fd5b600083013567ffffffffffffffff811115613be957600080fd5b613bf585828601613a58565b9250506020613c0685828601613a82565b9150509250929050565b600060208284031215613c2257600080fd5b6000613c3084828501613a82565b91505092915050565b60008060408385031215613c4c57600080fd5b6000613c5a85828601613a82565b9250506020613c6b85828601613a82565b9150509250929050565b6000613c818383613fed565b60208301905092915050565b6000613c99838361400b565b905092915050565b6000613cad8383614727565b905092915050565b6000613cc183836147e5565b905092915050565b6000613cd5838361485b565b60208301905092915050565b613cea8161523a565b82525050565b613cf98161523a565b82525050565b6000613d0a82615089565b613d14818561510c565b9350613d1f83615039565b8060005b83811015613d50578151613d378882613c75565b9750613d42836150cb565b925050600181019050613d23565b5085935050505092915050565b6000613d6882615094565b613d72818561511d565b935083602082028501613d8485615049565b8060005b85811015613dc05784840389528151613da18582613c8d565b9450613dac836150d8565b925060208a01995050600181019050613d88565b50829750879550505050505092915050565b6000613ddd82615094565b613de7818561512e565b935083602082028501613df985615049565b8060005b85811015613e355784840389528151613e168582613c8d565b9450613e21836150d8565b925060208a01995050600181019050613dfd565b50829750879550505050505092915050565b6000613e528261509f565b613e5c818561513f565b935083602082028501613e6e85615059565b8060005b85811015613eaa5784840389528151613e8b8582613ca1565b9450613e96836150e5565b925060208a01995050600181019050613e72565b50829750879550505050505092915050565b6000613ec7826150aa565b613ed18185615150565b935083602082028501613ee385615069565b8060005b85811015613f1f5784840389528151613f008582613cb5565b9450613f0b836150f2565b925060208a01995050600181019050613ee7565b50829750879550505050505092915050565b6000613f3c826150b5565b613f468185615161565b9350613f5183615079565b8060005b83811015613f82578151613f698882613cc9565b9750613f74836150ff565b925050600181019050613f55565b5085935050505092915050565b6000613f9a826150b5565b613fa48185615172565b9350613faf83615079565b8060005b83811015613fe0578151613fc78882613cc9565b9750613fd2836150ff565b925050600181019050613fb3565b5085935050505092915050565b613ff68161524c565b82525050565b6140058161524c565b82525050565b6000614016826150c0565b614020818561518e565b9350614030818560208601615291565b614039816153f6565b840191505092915050565b600061404f826150c0565b614059818561519f565b9350614069818560208601615291565b614072816153f6565b840191505092915050565b600061408a600f8361519f565b91507f496e76616c696420706f737420494400000000000000000000000000000000006000830152602082019050919050565b60006140ca60188361519f565b91507f57616c6c657420616c726561647920636f6e6e656374656400000000000000006000830152602082019050919050565b600061410a600f8361519f565b91507f496e76616c6964206164647265737300000000000000000000000000000000006000830152602082019050919050565b600061414a601a8361519f565b91507f4d696e696d756d2032206f7074696f6e732072657175697265640000000000006000830152602082019050919050565b600061418a601c8361519f565b91507f4e6f7420666f6c6c6f77696e67207468697320636f6d6d756e697479000000006000830152602082019050919050565b60006141ca60218361519f565b91507f4f6e6c79206f776e65722063616e2063616c6c20746869732066756e6374696f60008301527f6e000000000000000000000000000000000000000000000000000000000000006020830152604082019050919050565b600061423060188361519f565b91507f506f6c6c2063726561746f722063616e6e6f7420766f746500000000000000006000830152602082019050919050565b6000614270601d8361519f565b91507f4d75737420666f6c6c6f7720636f6d6d756e69747920746f20706f73740000006000830152602082019050919050565b60006142b0600f8361519f565b91507f5472616e73666572206661696c656400000000000000000000000000000000006000830152602082019050919050565b60006142f060138361519f565b91507f55736572206e6f742072656769737465726564000000000000000000000000006000830152602082019050919050565b6000614330600e8361519f565b91507f496e76616c6964206f7074696f6e0000000000000000000000000000000000006000830152602082019050919050565b6000614370601e8361519f565b91507f436f6d6d756e697479206e616d652063616e6e6f7420626520656d70747900006000830152602082019050919050565b60006143b060188361519f565b91507f496e636f7272656374207061796d656e7420616d6f756e7400000000000000006000830152602082019050919050565b60006143f0600d8361519f565b91507f416c726561647920766f746564000000000000000000000000000000000000006000830152602082019050919050565b600061443060168361519f565b91507f4e6f207265776172647320746f207769746864726177000000000000000000006000830152602082019050919050565b600061447060128361519f565b91507f506f6c6c206973206e6f742061637469766500000000000000000000000000006000830152602082019050919050565b60006144b060248361519f565b91507f4d75737420666f6c6c6f7720636f6d6d756e69747920746f206372656174652060008301527f706f6c6c000000000000000000000000000000000000000000000000000000006020830152604082019050919050565b600061451660178361519f565b91507f436f6e74656e742063616e6e6f7420626520656d7074790000000000000000006000830152602082019050919050565b600061455660178361519f565b91507f5573657220616c726561647920726567697374657265640000000000000000006000830152602082019050919050565b600061459660138361519f565b91507f506f6c6c20646f6573206e6f74206578697374000000000000000000000000006000830152602082019050919050565b60006145d660178361519f565b91507f436f6d6d756e697479206973206e6f74206163746976650000000000000000006000830152602082019050919050565b600061461660148361519f565b91507f496e76616c696420636f6d6d756e6974792049440000000000000000000000006000830152602082019050919050565b6000614656600083615183565b9150600082019050919050565b600061467060208361519f565b91507f416c726561647920666f6c6c6f77696e67207468697320636f6d6d756e6974796000830152602082019050919050565b60006146b060148361519f565b91507f4e6f742074686520706f6c6c2063726561746f720000000000000000000000006000830152602082019050919050565b600060408301600083015184820360008601526147008282613ebc565b9150506020830151848203602086015261471a8282613e47565b9150508091505092915050565b6000610100830160008301516147406000860182613ce1565b5060208301518482036020860152614758828261400b565b915050604083015184820360408601526147728282613d5d565b9150506060830151848203606086015261478c8282613f31565b91505060808301516147a1608086018261485b565b5060a08301516147b460a086018261485b565b5060c08301516147c760c086018261485b565b5060e08301516147da60e0860182613fed565b508091505092915050565b600060a0830160008301516147fd6000860182613ce1565b5060208301518482036020860152614815828261400b565b915050604083015161482a604086018261485b565b50606083015161483d606086018261485b565b5060808301516148506080860182613fed565b508091505092915050565b61486481615278565b82525050565b61487381615278565b82525050565b600061488482614649565b9150819050919050565b60006020820190506148a36000830184613cf0565b92915050565b600060a0820190506148be6000830188613cf0565b81810360208301526148d08187614044565b905081810360408301526148e48186613dd2565b90506148f3606083018561486a565b6149006080830184613ffc565b9695505050505050565b600060a08201905061491f6000830188613cf0565b81810360208301526149318187614044565b9050614940604083018661486a565b61494d6060830185613ffc565b61495a608083018461486a565b9695505050505050565b600060e082019050614979600083018a613cf0565b818103602083015261498b8189614044565b905061499a604083018861486a565b6149a76060830187613ffc565b6149b4608083018661486a565b6149c160a083018561486a565b6149ce60c083018461486a565b98975050505050505050565b60006040820190506149ef6000830185613cf0565b6149fc602083018461486a565b9392505050565b60006080820190508181036000830152614a1d8187613f8f565b90508181036020830152614a318186613dd2565b90508181036040830152614a458185613cff565b90508181036060830152614a598184613f8f565b905095945050505050565b60006040820190508181036000830152614a7e8185613f8f565b90508181036020830152614a928184613f8f565b90509392505050565b6000602082019050614ab06000830184613ffc565b92915050565b6000604082019050614acb6000830185613ffc565b614ad8602083018461486a565b9392505050565b60006020820190508181036000830152614af88161407d565b9050919050565b60006020820190508181036000830152614b18816140bd565b9050919050565b60006020820190508181036000830152614b38816140fd565b9050919050565b60006020820190508181036000830152614b588161413d565b9050919050565b60006020820190508181036000830152614b788161417d565b9050919050565b60006020820190508181036000830152614b98816141bd565b9050919050565b60006020820190508181036000830152614bb881614223565b9050919050565b60006020820190508181036000830152614bd881614263565b9050919050565b60006020820190508181036000830152614bf8816142a3565b9050919050565b60006020820190508181036000830152614c18816142e3565b9050919050565b60006020820190508181036000830152614c3881614323565b9050919050565b60006020820190508181036000830152614c5881614363565b9050919050565b60006020820190508181036000830152614c78816143a3565b9050919050565b60006020820190508181036000830152614c98816143e3565b9050919050565b60006020820190508181036000830152614cb881614423565b9050919050565b60006020820190508181036000830152614cd881614463565b9050919050565b60006020820190508181036000830152614cf8816144a3565b9050919050565b60006020820190508181036000830152614d1881614509565b9050919050565b60006020820190508181036000830152614d3881614549565b9050919050565b60006020820190508181036000830152614d5881614589565b9050919050565b60006020820190508181036000830152614d78816145c9565b9050919050565b60006020820190508181036000830152614d9881614609565b9050919050565b60006020820190508181036000830152614db881614663565b9050919050565b60006020820190508181036000830152614dd8816146a3565b9050919050565b60006020820190508181036000830152614df981846146e3565b905092915050565b6000602082019050614e16600083018461486a565b92915050565b6000604082019050614e31600083018561486a565b614e3e6020830184613cf0565b9392505050565b6000608082019050614e5a600083018761486a565b614e676020830186613cf0565b8181036040830152614e798185614044565b9050614e88606083018461486a565b95945050505050565b600060c082019050614ea6600083018961486a565b614eb36020830188613cf0565b8181036040830152614ec58187614044565b9050614ed4606083018661486a565b614ee16080830185613ffc565b614eee60a083018461486a565b979650505050505050565b6000606082019050614f0e600083018661486a565b614f1b6020830185613cf0565b614f28604083018461486a565b949350505050565b6000604082019050614f45600083018561486a565b8181036020830152614f578184614044565b90509392505050565b6000608082019050614f75600083018761486a565b8181036020830152614f878186614044565b9050614f966040830185613ffc565b614fa3606083018461486a565b95945050505050565b6000604051905081810181811067ffffffffffffffff82111715614fd357614fd26153c7565b5b8060405250919050565b600067ffffffffffffffff821115614ff857614ff76153c7565b5b602082029050602081019050919050565b600067ffffffffffffffff821115615024576150236153c7565b5b601f19601f8301169050602081019050919050565b6000819050602082019050919050565b6000819050602082019050919050565b6000819050602082019050919050565b6000819050602082019050919050565b6000819050602082019050919050565b600081519050919050565b600081519050919050565b600081519050919050565b600081519050919050565b600081519050919050565b600081519050919050565b6000602082019050919050565b6000602082019050919050565b6000602082019050919050565b6000602082019050919050565b6000602082019050919050565b600082825260208201905092915050565b600082825260208201905092915050565b600082825260208201905092915050565b600082825260208201905092915050565b600082825260208201905092915050565b600082825260208201905092915050565b600082825260208201905092915050565b600081905092915050565b600082825260208201905092915050565b600082825260208201905092915050565b60006151bb82615278565b91506151c683615278565b9250827fffffffffffffffffffffffffffffffffffffffffffffffffffffffffffffffff038211156151fb576151fa615369565b5b828201905092915050565b600061521182615278565b915061521c83615278565b92508282101561522f5761522e615369565b5b828203905092915050565b600061524582615258565b9050919050565b60008115159050919050565b600073ffffffffffffffffffffffffffffffffffffffff82169050919050565b6000819050919050565b82818337600083830152505050565b60005b838110156152af578082015181840152602081019050615294565b838111156152be576000848401525b50505050565b60006152cf82615278565b915060008214156152e3576152e2615369565b5b600182039050919050565b6000600282049050600182168061530657607f821691505b6020821081141561531a57615319615398565b5b50919050565b600061532b82615278565b91507fffffffffffffffffffffffffffffffffffffffffffffffffffffffffffffffff82141561535e5761535d615369565b5b600182019050919050565b7f4e487b7100000000000000000000000000000000000000000000000000000000600052601160045260246000fd5b7f4e487b7100000000000000000000000000000000000000000000000000000000600052602260045260246000fd5b7f4e487b7100000000000000000000000000000000000000000000000000000000600052604160045260246000fd5b6000601f19601f8301169050919050565b6154108161523a565b811461541b57600080fd5b50565b61542781615278565b811461543257600080fd5b5056fea2646970667358221220f76fe523c63bad111332fe5d030341f4bfa052001a4a595969745515769e129964736f6c63430008000033",
  "immutableReferences": {},
  "source": "// SPDX-License-Identifier: MIT\r\npragma solidity ^0.8.0;\r\n\r\ncontract PollPaymentSystem {\r\n    address private owner;\r\n\r\n    struct Community {\r\n        uint256 id;\r\n        string name;\r\n        bool isActive;\r\n        uint256 memberCount;\r\n    }\r\n\r\n    struct PostItem {\r\n        address creator;\r\n        string content;\r\n        uint256 communityId;\r\n        uint256 createdAt;\r\n        bool isActive;\r\n    }\r\n\r\n    struct PollItem {\r\n        address creator;\r\n        string question;\r\n        string[] options;\r\n        uint256[] voteCounts;\r\n        uint256 totalVotes;\r\n        uint256 communityId;\r\n        uint256 createdAt;\r\n        bool isActive;\r\n    }\r\n\r\n    struct CommunityContent {\r\n        PostItem[] posts;\r\n        PollItem[] polls;\r\n    }\r\n\r\n    struct UserCommunity {\r\n        bool isFollowing;\r\n        uint256 joinedAt;\r\n    }\r\n\r\n    struct Poll {\r\n        address creator;\r\n        string question;\r\n        string[] options;\r\n        mapping(uint => uint) votesCount;\r\n        mapping(address => bool) hasVoted;\r\n        uint totalVotes;\r\n        bool isActive;\r\n        uint reward;\r\n        uint256 communityId;  // New field\r\n        uint256 createdAt;\r\n    }\r\n\r\n    struct ContentItem {\r\n        uint256 id;\r\n        string contentType;  // \"post\" or \"poll\"\r\n        address creator;\r\n        string content;      // post content or poll question\r\n        uint256 communityId;\r\n        uint256 createdAt;\r\n        bool isActive;\r\n        // Poll specific fields\r\n        string[] options;    // empty for posts\r\n        uint256[] voteCounts; // empty for posts\r\n        uint256 totalVotes;  // 0 for posts\r\n    }\r\n\r\n    struct Post {\r\n        uint256 id;\r\n        address creator;\r\n        string content;\r\n        uint256 communityId;\r\n        bool isActive;\r\n        uint256 createdAt;\r\n    }\r\n\r\n    mapping(uint => Poll) public polls;\r\n    mapping(address => uint) public userWallet;\r\n    mapping(address => bool) public registeredUsers;\r\n    mapping(uint256 => Community) public communities;\r\n    mapping(address => mapping(uint256 => UserCommunity)) public userCommunities;\r\n    mapping(uint256 => Post) public posts;\r\n    uint256 public postCount;\r\n    uint256 public communityCount;\r\n    uint public constant POST_CREATION_FEE = 50 * 1 ether; // 50 tokens in wei\r\n    uint public pollCount;\r\n\r\n    event PollCreated(uint pollId, address creator, string question, uint256 communityId);\r\n    event VoteCasted(uint pollId, address voter, uint option);\r\n    event RewardClaimed(address user, uint amount);\r\n    event UserRegistered(address user);\r\n    event CommunityCreated(uint256 communityId, string name);\r\n    event CommunityFollowed(uint256 communityId, address user);\r\n    event CommunityUnfollowed(uint256 communityId, address user);\r\n    event PostCreated(uint256 postId, address creator, uint256 communityId);\r\n    event PostContent(uint256 postId, string content); // Separate event for content to keep main event lean\r\n\r\n    constructor(address _initialOwner) {\r\n        require(_initialOwner != address(0), \"Invalid owner address\");\r\n        owner = _initialOwner;\r\n        registeredUsers[_initialOwner] = true;\r\n        emit UserRegistered(_initialOwner);\r\n        createDefaultCommunities();\r\n    }\r\n\r\n    modifier onlyOwner() {\r\n        require(msg.sender == owner, \"Only owner can call this function\");\r\n        _;\r\n    }\r\n\r\n    modifier onlyRegistered() {\r\n        require(registeredUsers[msg.sender], \"User not registered\");\r\n        _;\r\n    }\r\n\r\n    modifier onlyPollCreator(uint _pollId) {\r\n        require(polls[_pollId].creator == msg.sender, \"Not the poll creator\");\r\n        _;\r\n    }\r\n\r\n    modifier notPollCreator(uint _pollId) {\r\n        require(polls[_pollId].creator != msg.sender, \"Poll creator cannot vote\");\r\n        _;\r\n    }\r\n\r\n    modifier pollExists(uint _pollId) {\r\n        require(_pollId < pollCount, \"Poll does not exist\");\r\n        _;\r\n    }\r\n\r\n    modifier pollActive(uint _pollId) {\r\n        require(polls[_pollId].isActive, \"Poll is not active\");\r\n        _;\r\n    }\r\n\r\n    modifier hasNotVoted(uint _pollId) {\r\n        require(!polls[_pollId].hasVoted[msg.sender], \"Already voted\");\r\n        _;\r\n    }\r\n\r\n    function createPost(string memory _content, uint256 _communityId) external onlyRegistered {\r\n        require(bytes(_content).length > 0, \"Content cannot be empty\");\r\n        require(_communityId > 0 && _communityId <= communityCount, \"Invalid community ID\");\r\n        require(userCommunities[msg.sender][_communityId].isFollowing, \"Must follow community to post\");\r\n\r\n        uint256 newPostId = postCount + 1;\r\n        Post storage newPost = posts[newPostId];\r\n        \r\n        newPost.id = newPostId;\r\n        newPost.creator = msg.sender;\r\n        newPost.content = _content;\r\n        newPost.communityId = _communityId;\r\n        newPost.isActive = true;\r\n        newPost.createdAt = block.timestamp;\r\n        \r\n        postCount++;\r\n        \r\n        emit PostCreated(newPostId, msg.sender, _communityId);\r\n        emit PostContent(newPostId, _content);\r\n    }\r\n\r\n    function createDefaultCommunities() private {\r\n        string[5] memory defaultNames = [\r\n            \"Technology\",\r\n            \"Science\",\r\n            \"Arts\",\r\n            \"Sports\",\r\n            \"Entertainment\"\r\n        ];\r\n\r\n        for(uint256 i = 0; i < 5; i++) {\r\n            Community storage newCommunity = communities[i + 1];\r\n            newCommunity.id = i + 1;\r\n            newCommunity.name = defaultNames[i];\r\n            newCommunity.isActive = true;\r\n            newCommunity.memberCount = 0;\r\n            communityCount++;\r\n            \r\n            emit CommunityCreated(i + 1, defaultNames[i]);\r\n        }\r\n    }\r\n\r\n        // Create a new community (only owner can create additional communities)\r\n    function createCommunity(string memory _name) external onlyOwner {\r\n        require(bytes(_name).length > 0, \"Community name cannot be empty\");\r\n        \r\n        uint256 newCommunityId = communityCount + 1;\r\n        Community storage newCommunity = communities[newCommunityId];\r\n        \r\n        newCommunity.id = newCommunityId;\r\n        newCommunity.name = _name;\r\n        newCommunity.isActive = true;\r\n        newCommunity.memberCount = 0;\r\n        \r\n        communityCount++;\r\n        \r\n        emit CommunityCreated(newCommunityId, _name);\r\n    }\r\n\r\n    // Follow a community\r\n    function followCommunity(uint256 _communityId) external onlyRegistered {\r\n        require(_communityId > 0 && _communityId <= communityCount, \"Invalid community ID\");\r\n        require(communities[_communityId].isActive, \"Community is not active\");\r\n        require(!userCommunities[msg.sender][_communityId].isFollowing, \"Already following this community\");\r\n\r\n        UserCommunity storage userCommunity = userCommunities[msg.sender][_communityId];\r\n        userCommunity.isFollowing = true;\r\n        userCommunity.joinedAt = block.timestamp;\r\n\r\n        communities[_communityId].memberCount++;\r\n        \r\n        emit CommunityFollowed(_communityId, msg.sender);\r\n    }\r\n\r\n    // Unfollow a community\r\n    function unfollowCommunity(uint256 _communityId) external onlyRegistered {\r\n        require(_communityId > 0 && _communityId <= communityCount, \"Invalid community ID\");\r\n        require(userCommunities[msg.sender][_communityId].isFollowing, \"Not following this community\");\r\n\r\n        UserCommunity storage userCommunity = userCommunities[msg.sender][_communityId];\r\n        userCommunity.isFollowing = false;\r\n\r\n        communities[_communityId].memberCount--;\r\n        \r\n        emit CommunityUnfollowed(_communityId, msg.sender);\r\n    }\r\n\r\n    // Get all communities\r\n    function getAllCommunities() external view returns (\r\n        uint256[] memory ids,\r\n        string[] memory names,\r\n        bool[] memory activeStates,\r\n        uint256[] memory memberCounts\r\n    ) {\r\n        ids = new uint256[](communityCount);\r\n        names = new string[](communityCount);\r\n        activeStates = new bool[](communityCount);\r\n        memberCounts = new uint256[](communityCount);\r\n\r\n        for (uint256 i = 1; i <= communityCount; i++) {\r\n            Community storage community = communities[i];\r\n            ids[i-1] = community.id;\r\n            names[i-1] = community.name;\r\n            activeStates[i-1] = community.isActive;\r\n            memberCounts[i-1] = community.memberCount;\r\n        }\r\n\r\n        return (ids, names, activeStates, memberCounts);\r\n    }\r\n\r\n    // Check if user follows a specific community\r\n    function isFollowingCommunity(address _user, uint256 _communityId) external view returns (bool) {\r\n        require(_communityId > 0 && _communityId <= communityCount, \"Invalid community ID\");\r\n        return userCommunities[_user][_communityId].isFollowing;\r\n    }\r\n\r\n    // Get user's followed communities\r\n    function getUserCommunities(address _user) external view returns (\r\n        uint256[] memory communityIds,\r\n        uint256[] memory joinDates\r\n    ) {\r\n        uint256 followedCount = 0;\r\n        \r\n        // First, count how many communities the user follows\r\n        for (uint256 i = 1; i <= communityCount; i++) {\r\n            if (userCommunities[_user][i].isFollowing) {\r\n                followedCount++;\r\n            }\r\n        }\r\n\r\n        communityIds = new uint256[](followedCount);\r\n        joinDates = new uint256[](followedCount);\r\n        \r\n        uint256 currentIndex = 0;\r\n        for (uint256 i = 1; i <= communityCount; i++) {\r\n            if (userCommunities[_user][i].isFollowing) {\r\n                communityIds[currentIndex] = i;\r\n                joinDates[currentIndex] = userCommunities[_user][i].joinedAt;\r\n                currentIndex++;\r\n            }\r\n        }\r\n\r\n        return (communityIds, joinDates);\r\n    }\r\n\r\n    // Register user function - can only be called by owner\r\n    function registerUser(address _userAddress) external onlyOwner {\r\n        require(_userAddress != address(0), \"Invalid address\");\r\n        require(!registeredUsers[_userAddress], \"User already registered\");\r\n        \r\n        registeredUsers[_userAddress] = true;\r\n        emit UserRegistered(_userAddress);\r\n    }\r\n\r\n    // Connect wallet function - can be called by any unregistered user\r\n    function connectWallet() external {\r\n        require(!registeredUsers[msg.sender], \"Wallet already connected\");\r\n        registeredUsers[msg.sender] = true;\r\n        emit UserRegistered(msg.sender);\r\n    }\r\n\r\n    // Create a new poll\r\n    function createPoll(string memory _question, string[] memory _options, uint256 _communityId) external payable onlyRegistered {\r\n        require(msg.value == POST_CREATION_FEE, \"Incorrect payment amount\");\r\n        require(_options.length >= 2, \"Minimum 2 options required\");\r\n        require(_communityId > 0 && _communityId <= communityCount, \"Invalid community ID\");\r\n        require(userCommunities[msg.sender][_communityId].isFollowing, \"Must follow community to create poll\");\r\n\r\n        uint pollId = pollCount;\r\n        Poll storage newPoll = polls[pollId];\r\n        \r\n        newPoll.creator = msg.sender;\r\n        newPoll.question = _question;\r\n        newPoll.options = _options;\r\n        newPoll.isActive = true;\r\n        newPoll.reward = 1 * 10**17; // 0.1 tokens per vote as reward\r\n        newPoll.communityId = _communityId;\r\n        newPoll.createdAt = block.timestamp;\r\n        \r\n        pollCount++;\r\n        \r\n        emit PollCreated(pollId, msg.sender, _question, _communityId);\r\n    }\r\n\r\n    function getPost(uint256 _postId) external view returns (\r\n        address creator,\r\n        string memory content,\r\n        uint256 communityId,\r\n        bool isActive,\r\n        uint256 createdAt\r\n    ) {\r\n        require(_postId > 0 && _postId <= postCount, \"Invalid post ID\");\r\n        Post storage post = posts[_postId];\r\n        return (\r\n            post.creator,\r\n            post.content,\r\n            post.communityId,\r\n            post.isActive,\r\n            post.createdAt\r\n        );\r\n    }\r\n\r\n    function getCommunityContent(uint256 _communityId) external view returns (CommunityContent memory) {\r\n        require(_communityId > 0 && _communityId <= communityCount, \"Invalid community ID\");\r\n\r\n        // First, count content in community\r\n        uint256 totalPosts = 0;\r\n        uint256 totalPolls = 0;\r\n        \r\n        for(uint256 i = 1; i <= postCount; i++) {\r\n            if(posts[i].communityId == _communityId) {\r\n                totalPosts++;\r\n            }\r\n        }\r\n        for(uint256 i = 0; i < pollCount; i++) {\r\n            if(polls[i].communityId == _communityId) {\r\n                totalPolls++;\r\n            }\r\n        }\r\n\r\n        // Initialize return arrays\r\n        PostItem[] memory communityPosts = new PostItem[](totalPosts);\r\n        PollItem[] memory communityPolls = new PollItem[](totalPolls);\r\n        \r\n        // Current indices for filling arrays\r\n        uint256 postIndex = 0;\r\n        uint256 pollIndex = 0;\r\n\r\n        // Add posts\r\n        for(uint256 i = 1; i <= postCount; i++) {\r\n            if(posts[i].communityId == _communityId) {\r\n                Post storage post = posts[i];\r\n                \r\n                communityPosts[postIndex] = PostItem({\r\n                    creator: post.creator,\r\n                    content: post.content,\r\n                    communityId: post.communityId,\r\n                    createdAt: post.createdAt,\r\n                    isActive: post.isActive\r\n                });\r\n                \r\n                postIndex++;\r\n            }\r\n        }\r\n\r\n        // Add polls\r\n        for(uint256 i = 0; i < pollCount; i++) {\r\n            if(polls[i].communityId == _communityId) {\r\n                Poll storage poll = polls[i];\r\n                \r\n                // Get vote counts for each option\r\n                uint256[] memory voteCounts = new uint256[](poll.options.length);\r\n                for(uint256 j = 0; j < poll.options.length; j++) {\r\n                    voteCounts[j] = poll.votesCount[j];\r\n                }\r\n\r\n                communityPolls[pollIndex] = PollItem({\r\n                    creator: poll.creator,\r\n                    question: poll.question,\r\n                    options: poll.options,\r\n                    voteCounts: voteCounts,\r\n                    totalVotes: poll.totalVotes,\r\n                    communityId: poll.communityId,\r\n                    createdAt: poll.createdAt,\r\n                    isActive: poll.isActive\r\n                });\r\n                \r\n                pollIndex++;\r\n            }\r\n        }\r\n\r\n        return CommunityContent({\r\n            posts: communityPosts,\r\n            polls: communityPolls\r\n        });\r\n    }\r\n    \r\n    // Cast a vote in a poll\r\n    function castVote(uint _pollId, uint _option) external \r\n        onlyRegistered\r\n        pollExists(_pollId) \r\n        pollActive(_pollId)\r\n        hasNotVoted(_pollId)\r\n        notPollCreator(_pollId)\r\n    {\r\n        require(_option < polls[_pollId].options.length, \"Invalid option\");\r\n        \r\n        Poll storage poll = polls[_pollId];\r\n        poll.votesCount[_option]++;\r\n        poll.hasVoted[msg.sender] = true;\r\n        poll.totalVotes++;\r\n        \r\n        // Add reward to user's wallet\r\n        userWallet[msg.sender] += poll.reward;\r\n        \r\n        emit VoteCasted(_pollId, msg.sender, _option);\r\n    }\r\n\r\n    // Get poll details\r\n    function getPollDetails(uint _pollId) external view \r\n        pollExists(_pollId) \r\n        returns (\r\n            address creator,\r\n            string memory question,\r\n            string[] memory options,\r\n            uint totalVotes,\r\n            bool isActive\r\n        ) \r\n    {\r\n        Poll storage poll = polls[_pollId];\r\n        return (\r\n            poll.creator,\r\n            poll.question,\r\n            poll.options,\r\n            poll.totalVotes,\r\n            poll.isActive\r\n        );\r\n    }\r\n\r\n    // Get votes for a specific option\r\n    function getVotesForOption(uint _pollId, uint _option) external view \r\n        pollExists(_pollId) \r\n        returns (uint) \r\n    {\r\n        require(_option < polls[_pollId].options.length, \"Invalid option\");\r\n        return polls[_pollId].votesCount[_option];\r\n    }\r\n\r\n    // Close a poll\r\n    function closePoll(uint _pollId) external \r\n        onlyRegistered\r\n        pollExists(_pollId) \r\n        onlyPollCreator(_pollId) \r\n    {\r\n        polls[_pollId].isActive = false;\r\n    }\r\n\r\n    // Withdraw rewards to Ethereum wallet\r\n    function withdrawRewards() external onlyRegistered {\r\n        uint amount = userWallet[msg.sender];\r\n        require(amount > 0, \"No rewards to withdraw\");\r\n        \r\n        userWallet[msg.sender] = 0;\r\n        \r\n        (bool success, ) = payable(msg.sender).call{value: amount}(\"\");\r\n        require(success, \"Transfer failed\");\r\n        \r\n        emit RewardClaimed(msg.sender, amount);\r\n    }\r\n\r\n    // Check contract balance\r\n    function getContractBalance() external view onlyRegistered returns (uint) {\r\n        return address(this).balance;\r\n    }\r\n\r\n    // Check if an address is registered\r\n    function isRegistered(address _user) external view returns (bool) {\r\n        return registeredUsers[_user];\r\n    }\r\n}",
  "sourcePath": "/Users/tanmaydaga/Documents/Programming/Piwot2.0/smartcontract/contracts/PollPaymentSystem.sol",
  "compiler": {
    "name": "solc",
    "version": "0.8.0+commit.c7dfd78e.Emscripten.clang"
  },
  "schemaVersion": "3.4.16",
  "updatedAt": "2025-01-18T19:49:25.242Z",
  "networkType": "ethereum",
  "devdoc": {
    "kind": "dev",
    "methods": {},
    "version": 1
  },
  "userdoc": {
    "kind": "user",
    "methods": {},
    "version": 1
  }
}